{
  "abi": [
    {
      "inputs": [],
      "name": "decrement",
      "outputs": [],
      "stateMutability": "nonpayable",
      "type": "function"
    },
    {
      "inputs": [],
      "name": "increment",
      "outputs": [],
      "stateMutability": "nonpayable",
      "type": "function"
    },
    {
      "inputs": [],
      "name": "number",
      "outputs": [
        {
          "internalType": "uint256",
          "name": "",
          "type": "uint256"
        }
      ],
      "stateMutability": "view",
      "type": "function"
    },
    {
      "inputs": [
        {
          "internalType": "uint256",
          "name": "newNumber",
          "type": "uint256"
        }
      ],
      "name": "setNumber",
      "outputs": [],
      "stateMutability": "nonpayable",
      "type": "function"
    },
    {
      "inputs": [],
      "name": "showNumber",
      "outputs": [
        {
          "internalType": "uint256",
          "name": "",
          "type": "uint256"
        }
      ],
      "stateMutability": "view",
      "type": "function"
    },
    {
      "inputs": [],
      "name": "showRandomNumber",
      "outputs": [
        {
          "internalType": "uint256",
          "name": "",
          "type": "uint256"
        }
      ],
      "stateMutability": "view",
      "type": "function"
    }
  ],
  "bytecode": {
    "object": "0x608060405234801561001057600080fd5b506101a0806100206000396000f3fe608060405234801561001057600080fd5b50600436106100625760003560e01c80632baeceb7146100675780633fb5c1cb146100715780634516e06f1461008457806376dad2231461009e5780638381f58a146100a6578063d09de08a146100af575b600080fd5b61006f6100b7565b005b61006f61007f3660046100f2565b600055565b61008c6100cd565b60405190815260200160405180910390f35b60005461008c565b61008c60005481565b61006f6100e3565b6000805490806100c683610121565b9190505550565b60006100da600142610138565b4060ff16919050565b6000805490806100c683610151565b60006020828403121561010457600080fd5b5035919050565b634e487b7160e01b600052601160045260246000fd5b6000816101305761013061010b565b506000190190565b8181038181111561014b5761014b61010b565b92915050565b6000600182016101635761016361010b565b506001019056fea2646970667358221220f3ed642b239a0a723c131e262e91bab3b456415f1d7bf976c7939f18e149fbdf64736f6c63430008150033",
    "linkReferences": {}
  },
  "methodIdentifiers": {
    "decrement()": "2baeceb7",
    "increment()": "d09de08a",
    "number()": "8381f58a",
    "setNumber(uint256)": "3fb5c1cb",
    "showNumber()": "76dad223",
    "showRandomNumber()": "4516e06f"
  },
  "id": 0
}